:020000040800F2
:10000000002800204D120008091100080F110008F7
:10001000151100081B110008211100080000000044
:100020000000000000000000000000002711000890
:1000300033110008000000003F1100084B110008B8
:1000400095120008951200089512000895120008F4
:1000500095120008951200089512000895120008E4
:1000600095120008951200089512000895120008D4
:1000700095120008951200089512000895120008C4
:1000800095120008951200089512000895120008B4
:1000900095120008951200089512000895120008A4
:1000A0009512000895120008951200089512000894
:1000B0005911000895120008000000009512000870
:1000C00095120008000000000000000095120008D2
:1000D00000000000951200089512000800000000C2
:1000E0009512000895120008951200080000000003
:1000F0000000000000000000000000000000000000
:0C01000000000000000000005FF808F1A3
:10010C0010B5054C237833B9044B13B10448AFF345
:10011C0000800123237010BD3C0000200000000073
:10012C00C428000808B5034B1BB103490348AFF3BF
:10013C00008008BD0000000040000020C42800081A
:10014C0080B500AF404B1B68404A1360404B1B68A6
:10015C003D4A136001213F4801F082FB03461A46D9
:10016C003B4B1A603C4B1B683C4A13603C4B1B6876
:10017C00394A13600221374801F072FB03461A46D4
:10018C00374B1A60314B1A682F4B1B689A4229D196
:10019C002D4B1A682E4B1B689A4223D1314B1A688F
:1001AC002B4B1B689A420ED0294B1B682D4A1360AF
:1001BC00274B1B68002B15D12B4B01221A602B4BA4
:1001CC00C8221A600EE0294B1B68013B274A1360BA
:1001DC00264B1B68002B05DC224B01221A60234B9B
:1001EC00C8221A601D4B1A681B4B1B689A4229D1F6
:1001FC00194B1A681A4B1B689A4223D11C4B1A686C
:10020C00174B1B689A420ED0154B1B68184A13608B
:10021C00134B1B68002B15D1164B02221A60134B83
:10022C00C8221A600EE0114B1B68013B0F4A136089
:10023C000E4B1B68002B05DC0D4B01221A600B4B7F
:10024C00C8221A6000BF80BD0400002000000020FE
:10025C0008000020000C01401400002010000020B9
:10026C00180000200C0000205C000020580000202A
:10027C001C0000206000002080B400AF0B4B1B68FA
:10028C00012B04D1094B00221A60012309E0084B11
:10029C001B68022B04D1064B00221A60022300E0DB
:1002AC0000231846BD4680BC704700BF5C00002090
:1002BC006000002080B500AFA14B1B68012B00F043
:1002CC00E281A04B1B68032B00F2F08001A252F8D4
:1002DC0023F000BFF10200089F0300085B04000834
:1002EC00FD03000800220821974801F0D0FA0022F3
:1002FC001021954801F0CBFA00222021924801F000
:10030C00C6FA00224021904801F0C1FA0022802157
:10031C008D4801F0BCFA00224FF480718A4801F03C
:10032C00B6FA884B01221A60884B1B68884A82FBFC
:10033C0003129211DB17D31A864A1360864B0322E1
:10034C001A60864B1B68824A82FB03129211DB17E0
:10035C00D31A834A13607F4B1B68814A126811467B
:10036C00184600F0E1FB794B1B681946002000F0A1
:10037C00FDFE7A4B1B681946012000F0F7FE4FF486
:10038C007A71022000F0F2FEFA21032000F0EEFE5A
:10039C007AE1012208216C4801F079FA002210213F
:1003AC00694801F074FA00222021674801F06FFAC5
:1003BC006C4B1B68012B7BD1624B03221A60674B81
:1003CC001B68634A82FB03129211DB17D31A614A32
:1003DC001360604B1B68624A12681146184600F0A5
:1003EC00A3FB5E4B1B681946002000F0BFFE5FE0CC
:1003FC0000220821544801F04AFA002210215248E8
:10040C0001F045FA012220214F4801F040FA554BEA
:10041C001B68012B4ED14B4B02221A60524B1B68AE
:10042C004B4A82FB03129211DB17D31A494A136011
:10043C00484B1B684A4A12681146184600F074FB78
:10044C00494B1B681946002000F090FE32E0002258
:10045C0008213D4801F01BFA012210213A4801F015
:10046C0016FA00222021384801F011FA3D4B1B6886
:10047C00012B21D1334B01221A60344B1B68344AB7
:10048C0082FB03129211DB17D31A324A1360314BE1
:10049C001B68334A12681146184600F045FB2B4B7B
:1004AC001B681946002000F061FE05E000BF04E067
:1004BC0000BF02E000BF00E000BF274B1B68013B00
:1004CC00032B00F2B38001A252F823F0E9040008D8
:1004DC00D9050008790500083906000801224021D9
:1004EC00194801F0D4F900228021174801F0CFF906
:1004FC0000224FF48071144801F0C9F9194B5B6864
:10050C00012B40F09580144B03221A60134B1B688F
:10051C000F4A82FB03129211DB17D31A104A136095
:10052C000C4B1B680E4A12681146184600F0FCFA78
:10053C000A4B1B681946012000F018FE78E000BF3A
:10054C00740000206C0000200008014020000020F6
:10055C00D34D6210640000207000002028000020A1
:10056C00680000209C000020240000200022402174
:10057C00464801F08CF900228021444801F087F9AB
:10058C0001224FF48071414801F081F9404B5B68C6
:10059C00012B4FD13F4B02221A603F4B1B683F4A45
:1005AC0082FB03129211DB17D31A3D4A13603D4BA9
:1005BC001B683B4A12681146184600F0B5FA364BD8
:1005CC001B681946012000F0D1FD33E000224021C8
:1005DC002E4801F05CF9012280212C4801F057F9DA
:1005EC0000224FF48071294801F051F9284B5B68C7
:1005FC00012B21D1274B01221A602B4B1B68274A58
:10060C0082FB03129211DB17D31A254A1360254B78
:10061C001B68234A12681146184600F085FA224BD3
:10062C001B681946012000F0A1FD05E000BF04E0A5
:10063C0000BF02E000BF00E000BF154BDB68012BE0
:10064C0005D1FA21032000F091FD00F02FF8104B9A
:10065C009B68012B18D14FF47A71022000F086FDB3
:10066C00104B1B68013B0F4A13600D4B1B68013B81
:10067C000B4A13600B4B1B68094A1268114618464B
:10068C0000F052FA00E000BF80BD00BF000801403E
:10069C009C0000207000002024000020D34D62102C
:1006AC0068000020640000202000002080B500AF0E
:1006BC00012208212E4801F0EAF8012210212C48D1
:1006CC0001F0E5F801222021294801F0E0F801228F
:1006DC004021274801F0DBF8264B1B68032B37D849
:1006EC0001A252F823F000BF050700081B07000801
:1006FC003107000847070008002208211C4801F0B8
:10070C00C6F81D4B1B68184600F038F821E0002293
:10071C001021174801F0BBF8174B5B68184600F026
:10072C002DF816E000222021114801F0B0F8124BF0
:10073C009B68184600F022F80BE0002240210C4880
:10074C0001F0A5F80C4BDB68184600F017F800E038
:10075C0000BF084B1B680133064A1360054B1B682E
:10076C00032B02DD034B00221A6000BF80BD00BFCB
:10077C00000C0140880000207800002080B582B079
:10078C0000AF78607B68092B00F2C88101A252F897
:10079C0023F000BFC90700081F08000875080008EF
:1007AC00CB0800082109000877090008CD090008CA
:1007BC00230A0008790A0008CF0A000800224FF427
:1007CC000071D54801F063F800224FF48061D248E3
:1007DC0001F05DF800224FF40061CF4801F057F8AA
:1007EC0000224FF48051CC4801F051F800224FF414
:1007FC000051C94801F04BF800224FF48041C64823
:10080C0001F045F801224FF40041C34801F03FF8D4
:10081C0085E101224FF40071BF4801F038F8002245
:10082C004FF48061BC4801F032F800224FF40061B3
:10083C00B94801F02CF801224FF48051B64801F070
:10084C0026F801224FF40051B34801F020F80122A0
:10085C004FF48041B04801F01AF801224FF40041E6
:10086C00AD4801F014F85AE100224FF40071AA4887
:10087C0001F00DF800224FF48061A74801F007F851
:10088C0001224FF40061A44801F001F800224FF45A
:10089C008051A14800F0FBFF00224FF400519E480C
:1008AC0000F0F5FF01224FF480419B4800F0EFFF70
:1008BC0000224FF40041984800F0E9FF2FE100229C
:1008CC004FF40071944800F0E2FF00224FF4806175
:1008DC00914800F0DCFF00224FF400618E4800F0DC
:1008EC00D6FF00224FF480518B4800F0D0FF01223C
:1008FC004FF40051884800F0CAFF01224FF48041A8
:10090C00854800F0C4FF00224FF40041824800F0FB
:10091C00BEFF04E101224FF400717F4800F0B7FFE5
:10092C0000224FF480617C4800F0B1FF00224FF4AC
:10093C000061794800F0ABFF01224FF480517648FA
:10094C0000F0A5FF01224FF40051734800F09FFF07
:10095C0000224FF48041704800F099FF00224FF4C0
:10096C0000416D4800F093FFD9E000224FF4007174
:10097C00694800F08CFF01224FF48061664800F05A
:10098C0086FF00224FF40061634800F080FF0022D4
:10099C004FF48051604800F07AFF01224FF400516F
:1009AC005D4800F074FF00224FF480415A4800F07B
:1009BC006EFF00224FF40041574800F068FFAEE094
:1009CC0000224FF40071544800F061FF01224FF4F3
:1009DC008061514800F05BFF00224FF400614E48EB
:1009EC0000F055FF00224FF480514B4800F04FFFB0
:1009FC0000224FF40051484800F049FF00224FF408
:100A0C008041454800F043FF00224FF4004142482A
:100A1C0000F03DFF83E000224FF400713E4800F0EF
:100A2C0036FF00224FF480613B4800F030FF00227B
:100A3C004FF40061384800F02AFF01224FF4805136
:100A4C00354800F024FF01224FF40051324800F0E9
:100A5C001EFF01224FF480412F4800F018FF0122A5
:100A6C004FF400412C4800F012FF58E000224FF4E4
:100A7C000071294800F00BFF00224FF480612648DA
:100A8C0000F005FF00224FF40061234800F0FFFE48
:100A9C0000224FF48051204800F0F9FE00224FF460
:100AAC0000511D4800F0F3FE00224FF480411A481B
:100ABC0000F0EDFE00224FF40041174800F0E7FE75
:100ACC002DE000224FF40071134800F0E0FE0022EC
:100ADC004FF48061104800F0DAFE00224FF4006100
:100AEC000D4800F0D4FE00224FF480510A4800F06B
:100AFC00CEFE01224FF40051074800F0C8FE002240
:100B0C004FF48041044800F0C2FE00224FF4004133
:100B1C00014800F0BCFE02E00008014000BF00BF2D
:100B2C000837BD4680BD00BF80B483B000AF78608D
:100B3C0039607B68184A82FB03129210DB17D31AB8
:100B4C00164A13607968144B83FB01239A10CB1758
:100B5C00D21A13469B0013445B00CA1A0F4B5A60FF
:100B6C003B680D4A82FB03129210DB17D31A0B4A17
:100B7C0093603968084B83FB01239A10CB17D21A68
:100B8C0013469B0013445B00CA1A044BDA6000BF87
:100B9C000C37BD4680BC70476766666678000020DF
:100BAC0080B500AF00F072FB00F00EF800F094F886
:100BBC0000F046F8034801F0C7FAFFF77BFB00F0A2
:100BCC00FDF8FAE7AC00002080B590B000AF07F15B
:100BDC00180328220021184601F066FE3B1D002256
:100BEC001A605A609A60DA601A610223BB610123B1
:100BFC00BB621023FB6200237B6307F118031846CA
:100C0C0000F076FE0346002B01D000F0D1F80F2344
:100C1C007B600023BB600023FB6000233B6100234F
:100C2C007B613B1D0021184601F0E2F80346002BC6
:100C3C0001D000F0BDF800BF4037BD4680BD0000BC
:100C4C0080B586B000AF07F1080300221A605A6025
:100C5C009A60DA603B4600221A605A601D4B4FF0D6
:100C6C0080421A601B4B41F63F725A60194B0022AE
:100C7C009A60184B0922DA60164B00221A61154B48
:100C8C0000229A61134801F00FFA0346002B01D0A1
:100C9C0000F08EF84FF48053BB6007F1080319463F
:100CAC000C4801F08DFB0346002B01D000F080F8BE
:100CBC0000233B6000237B603B461946054801F04E
:100CCC0065FD0346002B01D000F072F800BF183709
:100CDC00BD4680BDAC00002080B586B000AF07F1EA
:100CEC00080300221A605A609A60DA60274B9B69ED
:100CFC00264A43F004039361244B9B6903F00403DD
:100D0C007B607B68214B9B69204A43F0080393610D
:100D1C001E4B9B6903F008033B603B6800224FF6B7
:100D2C00FC711B4800F0B3FD00227821194800F03B
:100D3C00AEFD4FF6FC73BB600123FB6000233B61EF
:100D4C0002237B6107F108031946114800F00EFCE1
:100D5C000723BB600023FB6001233B6107F1080301
:100D6C0019460C4800F002FC7823BB600123FB60A1
:100D7C0000233B6102237B6107F1080319460548F8
:100D8C0000F0F4FB00BF1837BD4680BD00100240D8
:100D9C0000080140000C014080B582B000AF7860C3
:100DAC00FFF7CEF900F002FA00BF0837BD4680BD50
:100DBC0080B400AF72B600BFFEE7000080B500AF94
:100DCC00FFF75AFA0346012B2AD100220821974833
:100DDC0000F05DFD00221021944800F058FD002227
:100DEC002021924800F053FD002240218F4800F052
:100DFC004EFD002280218D4800F049FD00224FF469
:100E0C0080718A4800F043FD894B01221A60002151
:100E1C000020FFF789FE874B1B680133854A13605E
:100E2C00844B1B68042B00F2F98001A252F823F0CA
:100E3C00510E0008B70E0008230F00088D0F000894
:100E4C00F10F000800220821784800F020FD002254
:100E5C001021764800F01BFD00222021734800F081
:100E6C0016FD00224021714800F011FD0022802166
:100E7C006E4800F00CFD00224FF480716B4800F0BE
:100E8C0006FDFA21032000F071F96B4B00221A6069
:100E9C006A4B00221A606A4B00221A600021002063
:100EAC00FFF742FE634B01221A60FFF7E5F9034698
:100EBC00022B1CD1604B1B6803F57A735E4A1360DE
:100ECC005D4B1B685F4A82FB03129211DB17D01A31
:100EDC00594B1B685B4A82FB03129211DB17D31A26
:100EEC001946FFF721FE0421504800F0E8FC564B50
:100EFC00DB68012B40F09480FFF7D8FB08214B48AE
:100F0C0000F0DDFC4021494800F0D9FCFA21032017
:100F1C0000F02CF984E0FFF7AFF90346022B1CD14B
:100F2C00464B1B6803F57A73444A1360434B1B68AA
:100F3C00444A82FB03129211DB17D01A3F4B1B68F9
:100F4C00404A82FB03129211DB17D31A1946FFF7A2
:100F5C00EBFD0421354800F0B2FC3B4BDB68012B68
:100F6C0060D1FFF7A3FB1021304800F0A8FC8021D2
:100F7C002E4800F0A4FCFA21032000F0F7F851E011
:100F8C00FFF77AF90346022B18D12D4B1B6803F59A
:100F9C007A732B4A13602A4B1B682A4A82FB031272
:100FAC009211DB17D01A264B1B68264A82FB0312C0
:100FBC009211DB17D31A1946FFF7B6FD224BDB68EB
:100FCC00012B31D1FFF772FB2021184800F077FC80
:100FDC004FF48071154800F072FCFA21032000F0E8
:100FEC00C5F821E0144B1B68002B13D0134B1A6867
:100FFC00134B1B681A44104B1B689A420AD10D4BB9
:10100C004FF0FF321A60114B00221A60084B00227D
:10101C001A600AE0074B00221A6006E000BF04E0E9
:10102C0000BF02E000BF00E000BF80BD000801402F
:10103C00740000202C000020200000202400002040
:10104C0028000020D34D62109C0000206C00002072
:10105C0080B485B000AF154B9B69144A43F0010373
:10106C009361124B9B6903F00103BB60BB680F4B90
:10107C00DB690E4A43F08053D3610C4BDB6903F000
:10108C0080537B607B680A4B5B68FB60FB6823F0DA
:10109C00E063FB60FB6843F08063FB60044AFB6821
:1010AC00536000BF1437BD4680BC7047001002402F
:1010BC000000014080B584B000AF78607B681B688D
:1010CC00B3F1804F13D10C4BDB690B4A43F0010396
:1010DC00D361094BDB6903F00103FB60FB68002261
:1010EC0000211C2000F00BFA1C2000F024FA00BF99
:1010FC001037BD4680BD00BF0010024080B400AF69
:10110C00FEE780B400AFFEE780B400AFFEE780B42A
:10111C0000AFFEE780B400AFFEE780B400AF00BFC5
:10112C00BD4680BC704780B400AF00BFBD4680BCDC
:10113C00704780B400AF00BFBD4680BC704780B51F
:10114C0000AF00F0E9F800BF80BD000080B500AF33
:10115C00024801F045F800BF80BD00BFAC00002084
:10116C0080B400AF00BFBD4680BC704780B483B074
:10117C0000AF786039603B68094A82FB0312921019
:10118C00DB17D21A07497B6841F82320064A7B6893
:10119C00002142F8231000BF0C37BD4680BC7047BD
:1011AC00676666668C0000209C00002080B400AF4F
:1011BC00214B1B68002B0BDD1F4B1B68013B1E4A90
:1011CC0013601D4B1B68002B02D11C4B01221A60B3
:1011DC00194B5B68002B0BDD174B5B68013B164A08
:1011EC005360154B5B68002B02D1144B01225A60E3
:1011FC00114B9B68002B0BDD0F4B9B68013B0E4A80
:10120C0093600D4B9B68002B02D10C4B01229A6012
:10121C00094BDB68002B0BDD074BDB68013B064AF7
:10122C00D360054BDB68002B02D1044B0122DA6042
:10123C0000BFBD4680BC70478C0000209C00002085
:10124C00FFF78EFF0B480C490C4A002302E0D458E0
:10125C00C4500433C4188C42F9D3094A094C0023F6
:10126C0001E013600432A242FBD301F0F9FAFFF75C
:10127C0097FC7047000000203C0000200829000863
:10128C003C000020F8000020FEE7000080B500AF15
:10129C00084B1B68074A43F010031360032000F04F
:1012AC0023F90F2000F008F8FFF7D2FE00231846B0
:1012BC0080BD00BF0020024080B582B000AF7860D6
:1012CC00124B1A68124B1B7819464FF47A73B3FB06
:1012DC00F1F3B2FBF3F3184600F03BF90346002B95
:1012EC0001D001230EE07B680F2B0AD8002279680D
:1012FC004FF0FF3000F003F9064A7B6813600023BF
:10130C0000E0012318460837BD4680BD30000020A0
:10131C00380000203400002080B400AF054B1B784F
:10132C001A46054B1B681344034A136000BFBD46A5
:10133C0080BC704738000020F400002080B400AF5F
:10134C00024B1B681846BD4680BC7047F400002059
:10135C0080B485B000AF78607B6803F00703FB6056
:10136C000C4BDB68BB60BA684FF6FF031340BB60E5
:10137C00FB681A02BB68134343F0BF6343F40033AA
:10138C00BB60044ABB68D36000BF1437BD4680BC49
:10139C00704700BF00ED00E080B400AF044BDB6889
:1013AC001B0A03F007031846BD4680BC704700BFFC
:1013BC0000ED00E080B483B000AF0346FB7197F9F9
:1013CC000730002B0BDBFB7903F01F02064997F962
:1013DC0007305B09012000FA02F241F8232000BF1C
:1013EC000C37BD4680BC704700E100E080B483B090
:1013FC0000AF03463960FB7197F90730002B0ADB0D
:10140C003B68DAB20C4997F907301201D2B20B449F
:10141C0083F800230AE03B68DAB20849FB7903F051
:10142C000F03043B1201D2B20B441A7600BF0C37E7
:10143C00BD4680BC704700BF00E100E000ED00E05D
:10144C0080B489B000AFF860B9607A60FB6803F0D3
:10145C000703FB61FB69C3F10703042B28BF0423BB
:10146C00BB61FB690433062B02D9FB69033B00E02B
:10147C0000237B614FF0FF32BB6902FA03F3DA43BE
:10148C00BB681A407B699A404FF0FF317B6901FAC7
:10149C0003F3D9437B680B40134318462437BD46EE
:1014AC0080BC704780B582B000AF78607B68013B30
:1014BC00B3F1807F01D301230FE00A4A7B68013B23
:1014CC0053600F214FF0FF30FFF790FF054B0022C8
:1014DC009A60044B07221A60002318460837BD4651
:1014EC0080BD00BF10E000E080B582B000AF786036
:1014FC007868FFF72DFF00BF0837BD4680BD80B56B
:10150C0086B000AF0346B9607A60FB7300237B6141
:10151C00FFF742FF78617A68B9687869FFF790FF46
:10152C00024697F90F3011461846FFF75FFF00BFD0
:10153C001837BD4680BD80B582B000AF0346FB7145
:10154C0097F907301846FFF735FF00BF0837BD463F
:10155C0080BD80B582B000AF78607868FFF7A2FFDD
:10156C00034618460837BD4680BD000080B48BB0DA
:10157C0000AF7860396000237B6200233B6248E156
:10158C0001227B6A02FA03F3FB613B681B68FA6970
:10159C001340BB61BA69FB699A4240F037813B68E2
:1015AC005B68A34A93425ED0A14A934275D8A14A84
:1015BC00934258D09F4A93426FD89F4A934252D03D
:1015CC009D4A934269D89D4A93424CD09B4A934280
:1015DC0063D89B4A934246D0994A93425DD8122BCA
:1015EC002AD8122B59D801A252F823F073160008EE
:1015FC004D1600085F160008A1160008A716000873
:10160C00A7160008A7160008A7160008A7160008BA
:10161C00A7160008A7160008A7160008A7160008AA
:10162C00A7160008A7160008A7160008A71600089A
:10163C005516000869160008824A934213D02CE014
:10164C003B68DB683B6229E03B68DB6804333B6248
:10165C0024E03B68DB6808333B621FE03B68DB68D7
:10166C000C333B621AE03B689B68002B02D10423CD
:10167C003B6213E03B689B68012B05D108233B625E
:10168C007B68FA691A6109E008233B627B68FA6996
:10169C005A6103E000233B6200E000BFBB69FF2BF3
:1016AC0001D87B6801E07B6804337B61BB69FF2B4D
:1016BC0002D87B6A9B0002E07B6A083B9B003B6183
:1016CC007B691A680F213B6901FA03F3DB431A406B
:1016DC00396A3B6901FA03F31A437B691A603B6868
:1016EC005B6803F08053002B00F09080564B9B6995
:1016FC00554A43F001039361534B9B6903F001037B
:10170C00BB60BB68514A7B6A9B08023352F823309A
:10171C00FB607B6A03F003039B000F2202FA03F3C6
:10172C00DB43FA681340FB607B68494A93420DD057
:10173C007B68484A934207D07B68474A934201D161
:10174C00022304E0032302E0012300E000237A6A71
:10175C0002F0030292009340FA681343FB603B498A
:10176C007B6A9B080233FA6841F823203B685B686C
:10177C0003F48013002B06D0384B9A683749BB69A9
:10178C0013438B6006E0354B9A68BB69DB433349E6
:10179C0013408B603B685B6803F40013002B06D08E
:1017AC002E4BDA682D49BB691343CB6006E02B4BFB
:1017BC00DA68BB69DB4329491340CB603B685B6843
:1017CC0003F40033002B06D0244B5A682349BB6921
:1017DC0013434B6006E0214B5A68BB69DB431F493E
:1017EC0013404B603B685B6803F48033002B06D0DE
:1017FC001A4B1A681949BB6913430B6006E0174B67
:10180C001A68BB69DB43154913400B607B6A0133D3
:10181C007B623B681A687B6A22FA03F3002B7FF425
:10182C00AFAE00BF00BF2C37BD4680BC704700BFB9
:10183C0000003210000031100000221000002110B6
:10184C0000001210000011100010024000000140B6
:10185C0000080140000C0140001001400004014050
:10186C0080B485B000AF78600B467B807B689A684B
:10187C007B881340002B02D00123FB7301E0002373
:10188C00FB73FB7B18461437BD4680BC704780B495
:10189C0083B000AF78600B467B8013467B707B78FF
:1018AC00002B03D07A887B681A6103E07B881A04CA
:1018BC007B681A6100BF0C37BD4680BC704780B492
:1018CC0085B000AF78600B467B807B68DB68FB6083
:1018DC007A88FB6813401A04FB68D9437B880B4059
:1018EC001A437B681A6100BF1437BD4680BC704731
:1018FC0080B586B000AF78607B68002B01D10123E6
:10190C006CE27B681B6803F00103002B00F08780FE
:10191C00924B5B6803F00C03042B0CD08F4B5B6871
:10192C0003F00C03082B12D18C4B5B6803F480334F
:10193C00B3F5803F0BD1894B1B6803F40033002BAC
:10194C006CD07B685B68002B68D1012346E27B6816
:10195C005B68B3F5803F06D1804B1B687F4A43F42C
:10196C00803313602EE07B685B68002B0CD17B4BC3
:10197C001B687A4A23F480331360784B1B68774AD0
:10198C0023F4802313601DE07B685B68B3F5A02F04
:10199C000CD1724B1B68714A43F4802313606F4B5C
:1019AC001B686E4A43F4803313600BE06B4B1B686F
:1019BC006A4A23F480331360684B1B68674A23F42C
:1019CC00802313607B685B68002B13D0FFF7B6FC99
:1019DC00386108E0FFF7B2FC02463B69D31A642B6E
:1019EC0001D90323FAE15D4B1B6803F40033002B90
:1019FC00F0D014E0FFF7A2FC386108E0FFF79EFC82
:101A0C0002463B69D31A642B01D90323E6E1534BFD
:101A1C001B6803F40033002BF0D100E000BF7B689F
:101A2C001B6803F00203002B63D04C4B5B6803F084
:101A3C000C03002B0BD0494B5B6803F00C03082BF9
:101A4C001CD1464B5B6803F48033002B16D1434BFF
:101A5C001B6803F00203002B05D07B681B69012B6C
:101A6C0001D00123BAE13D4B1B6823F0F8027B68DF
:101A7C005B69DB00394913430B603AE07B681B69F7
:101A8C00002B20D0364B01221A60FFF757FC38612F
:101A9C0008E0FFF753FC02463B69D31A022B01D92D
:101AAC0003239BE12D4B1B6803F00203002BF0D0AA
:101ABC002A4B1B6823F0F8027B685B69DB00274923
:101ACC0013430B6015E0264B00221A60FFF736FC1F
:101ADC00386108E0FFF732FC02463B69D31A022B4F
:101AEC0001D903237AE11D4B1B6803F00203002B81
:101AFC00F0D17B681B6803F00803002B3AD07B689D
:101B0C009B69002B19D0174B01221A60FFF716FCAA
:101B1C00386108E0FFF712FC02463B69D31A022B2E
:101B2C0001D903235AE10D4B5B6A03F00203002B2E
:101B3C00F0D0012000F09AFA1CE00A4B00221A6047
:101B4C00FFF7FCFB38610FE0FFF7F8FB02463B693F
:101B5C00D31A022B08D9032340E100BF0010024026
:101B6C0000004242800442429E4B5B6A03F0020337
:101B7C00002BE9D17B681B6803F00403002B00F0F9
:101B8C00A6800023FB75974BDB6903F08053002B79
:101B9C000DD1944BDB69934A43F08053D361914B45
:101BAC00DB6903F08053BB60BB680123FB758E4B74
:101BBC001B6803F48073002B18D18B4B1B688A4A6B
:101BCC0043F480731360FFF7B9FB386108E0FFF74B
:101BDC00B5FB02463B69D31A642B01D90323FDE004
:101BEC00814B1B6803F48073002BF0D07B68DB689F
:101BFC00012B06D17B4B1B6A7A4A43F0010313621B
:101C0C002DE07B68DB68002B0CD1764B1B6A754A88
:101C1C0023F001031362734B1B6A724A23F0040313
:101C2C0013621CE07B68DB68052B0CD16D4B1B6AC7
:101C3C006C4A43F0040313626A4B1B6A694A43F013
:101C4C00010313620BE0674B1B6A664A23F0010326
:101C5C001362644B1B6A634A23F0040313627B68B0
:101C6C00DB68002B15D0FFF769FB38610AE0FFF742
:101C7C0065FB02463B69D31A41F28832934201D983
:101C8C000323ABE0574B1B6A03F00203002BEED08F
:101C9C0014E0FFF753FB38610AE0FFF74FFB0246F5
:101CAC003B69D31A41F28832934201D9032395E060
:101CBC004C4B1B6A03F00203002BEED1FB7D012B76
:101CCC0005D1484BDB69474A23F08053D3617B68CD
:101CDC00DB69002B00F08180424B5B6803F00C0346
:101CEC00082B61D07B68DB69022B46D13F4B00226D
:101CFC001A60FFF723FB386108E0FFF71FFB024671
:101D0C003B69D31A022B01D9032367E0354B1B68BF
:101D1C0003F00073002BF0D17B681B6AB3F5803F96
:101D2C0008D1304B5B6823F400327B689B682D49EB
:101D3C0013434B602B4B5B6823F474127B68196A5A
:101D4C007B685B6A0B43274913434B60274B01228B
:101D5C001A60FFF7F3FA386108E0FFF7EFFA024672
:101D6C003B69D31A022B01D9032337E01D4B1B68A7
:101D7C0003F00073002BF0D02FE01C4B00221A60F4
:101D8C00FFF7DCFA386108E0FFF7D8FA02463B6946
:101D9C00D31A022B01D9032320E0124B1B6803F04A
:101DAC000073002BF0D118E07B68DB69012B01D1AB
:101DBC00012313E00B4B5B68FB60FB6803F4803280
:101DCC007B681B6A9A4206D1FB6803F470127B682D
:101DDC005B6A9A4201D0012300E0002318461837B1
:101DEC00BD4680BD001002400070004060004242C1
:101DFC0080B584B000AF786039607B68002B01D16E
:101E0C000123D0E06A4B1B6803F007033A689A423F
:101E1C0010D9674B1B6823F0070265493B681343D5
:101E2C000B60634B1B6803F007033A689A4201D0BE
:101E3C000123B8E07B681B6803F00203002B20D061
:101E4C007B681B6803F00403002B05D0594B5B68BF
:101E5C00584A43F4E06353607B681B6803F0080343
:101E6C00002B05D0534B5B68524A43F460535360CC
:101E7C00504B5B6823F0F0027B689B684D49134321
:101E8C004B607B681B6803F00103002B40D07B6820
:101E9C005B68012B07D1474B1B6803F40033002B05
:101EAC0015D101237FE07B685B68022B07D1414B86
:101EBC001B6803F00073002B09D1012373E03D4B29
:101ECC001B6803F00203002B01D101236BE0394B9B
:101EDC005B6823F003027B685B68364913434B60F5
:101EEC00FFF72CFAF8600AE0FFF728FA0246FB68C5
:101EFC00D31A41F28832934201D9032353E02D4B7C
:101F0C005B6803F00C027B685B689B009A42EBD128
:101F1C00274B1B6803F007033A689A4210D2244BF4
:101F2C001B6823F0070222493B6813430B60204BCC
:101F3C001B6803F007033A689A4201D0012332E090
:101F4C007B681B6803F00403002B08D0194B5B68FB
:101F5C0023F4E0627B68DB68164913434B607B68B3
:101F6C001B6803F00803002B09D0124B5B6823F4A9
:101F7C0060527B681B69DB000E4913434B6000F019
:101F8C0021F802460B4B5B681B0903F00F030A494F
:101F9C00CB5C22FA03F3094A1360094B1B68184601
:101FAC00FFF78AF9002318461037BD4680BD00BFE5
:101FBC000020024000100240DC2800083000002005
:101FCC003400002080B487B000AF0023FB600023F6
:101FDC00BB6000237B6100237B6000233B611E4BB5
:101FEC005B68FB60FB6803F00C03042B02D0082B2E
:101FFC0003D027E0194B3B6127E0FB689B0C03F0F7
:10200C000F03174AD35C7B60FB6803F48033002B0F
:10201C0010D0114B5B685B0C03F00103114AD35CCD
:10202C00BB607B680D4A02FB03F2BB68B2FBF3F3A7
:10203C007B6104E07B680C4A02FB03F37B617B69E8
:10204C003B6102E0054B3B6100BF3B6918461C3706
:10205C00BD4680BC704700BF0010024000127A00E1
:10206C00EC280008FC28000800093D0080B485B06D
:10207C0000AF78600A4B1B680A4AA2FB03235B0A79
:10208C007A6802FB03F3FB6000BFFB685A1EFA6020
:10209C00002BF9D100BF00BF1437BD4680BC704780
:1020AC0030000020D34D621080B582B000AF786054
:1020BC007B68002B01D1012341E07B6893F83D3014
:1020CC00DBB2002B06D17B68002283F83C207868B9
:1020DC00FEF7F0FF7B68022283F83D207B681A68CC
:1020EC007B6804331946104600F056FA7B680122CF
:1020FC0083F846207B68012283F83E207B6801220E
:10210C0083F83F207B68012283F840207B68012202
:10211C0083F841207B68012283F842207B680122EE
:10212C0083F843207B68012283F844207B680122DA
:10213C0083F845207B68012283F83D200023184654
:10214C000837BD4680BD000080B485B000AF786014
:10215C007B6893F83D30DBB2012B01D0012335E0D5
:10216C007B68022283F83D207B681B68DA687B68F9
:10217C001B6842F00102DA607B681B68164A9342C6
:10218C0009D07B681B68B3F1804F04D07B681B6857
:10219C00124A934211D17B681B689B6803F00703BA
:1021AC00FB60FB68062B10D07B681B681A687B6889
:1021BC001B6842F001021A6007E07B681B681A6812
:1021CC007B681B6842F001021A6000231846143722
:1021DC00BD4680BC704700BF002C0140000400408D
:1021EC0080B584B000AF78607B681B68DB68FB60EF
:1021FC007B681B681B69BB60BB6803F00203002B88
:10220C0020D0FB6803F00203002B1BD07B681B68FB
:10221C006FF002021A617B6801221A777B681B68D7
:10222C009B6903F00303002B03D0786800F098F946
:10223C0005E0786800F08BF9786800F09AF97B6813
:10224C0000221A77BB6803F00403002B20D0FB6834
:10225C0003F00403002B1BD07B681B686FF0040297
:10226C001A617B6802221A777B681B689B6903F4EE
:10227C004073002B03D0786800F072F905E07868A1
:10228C0000F065F9786800F074F97B6800221A7721
:10229C00BB6803F00803002B20D0FB6803F0080395
:1022AC00002B1BD07B681B686FF008021A617B68DF
:1022BC0004221A777B681B68DB6903F00303002B8D
:1022CC0003D0786800F04CF905E0786800F03FF92D
:1022DC00786800F04EF97B6800221A77BB6803F02F
:1022EC001003002B20D0FB6803F01003002B1BD035
:1022FC007B681B686FF010021A617B6808221A77E2
:10230C007B681B68DB6903F44073002B03D078688F
:10231C0000F026F905E0786800F019F9786800F00B
:10232C0028F97B6800221A77BB6803F00103002BA5
:10233C000CD0FB6803F00103002B07D07B681B68F3
:10234C006FF001021A617868FEF726FDBB6803F096
:10235C008003002B0CD0FB6803F08003002B07D00C
:10236C007B681B686FF080021A61786800F06FFA66
:10237C00BB6803F04003002B0CD0FB6803F0400358
:10238C00002B07D07B681B686FF040021A617868DD
:10239C0000F0F8F8BB6803F02003002B0CD0FB68AE
:1023AC0003F02003002B07D07B681B686FF0200222
:1023BC001A61786800F042FA00BF1037BD4680BD44
:1023CC0080B584B000AF786039600023FB737B6804
:1023DC0093F83C30012B01D10223B4E07B6801223D
:1023EC0083F83C207B68022283F83D207B681B68C5
:1023FC009B68BB60BB6823F07703BB60BB6823F4AE
:10240C007F43BB607B681B68BA689A603B681B683B
:10241C00B3F5005F3ED0B3F5005F00F28780B3F5F3
:10242C00805F00F08680B3F5805F7FD8702B1AD068
:10243C00702B7BD8602B50D0602B77D8502B3CD096
:10244C00502B73D8402B58D0402B6FD8302B64D0E6
:10245C00302B6BD8202B60D0202B67D8002B5CD076
:10246C00102B5AD062E07B6818683B6899683B680F
:10247C005A683B68DB6800F06AF97B681B689B68EC
:10248C00BB60BB6843F07703BB607B681B68BA68B2
:10249C009A604FE07B6818683B6899683B685A689B
:1024AC003B68DB6800F053F97B681B689A687B68B3
:1024BC001B6842F480429A603CE07B6818683B6879
:1024CC0059683B68DB681A4600F0CAF87B681B68E1
:1024DC005021184600F021F92CE07B6818683B6805
:1024EC0059683B68DB681A4600F0E8F87B681B68A3
:1024FC006021184600F011F91CE07B6818683B68F5
:10250C0059683B68DB681A4600F0AAF87B681B68C0
:10251C004021184600F001F90CE07B681A683B6812
:10252C001B681946104600F0F8F803E00123FB7312
:10253C0000E000BF7B68012283F83D207B6800220D
:10254C0083F83C20FB7B18461037BD4680BD80B419
:10255C0083B000AF786000BF0C37BD4680BC7047BD
:10256C0080B483B000AF786000BF0C37BD4680BC30
:10257C00704780B483B000AF786000BF0C37BD46A5
:10258C0080BC704780B483B000AF786000BF0C375C
:10259C00BD4680BC7047000080B485B000AF786049
:1025AC0039607B681B68FB607B682B4A934207D0C1
:1025BC007B68B3F1804F03D07B68284A934208D1E3
:1025CC00FB6823F07003FB603B685B68FA6813439D
:1025DC00FB607B68204A934207D07B68B3F1804F45
:1025EC0003D07B681D4A934208D1FB6823F44073E7
:1025FC00FB603B68DB68FA681343FB60FB6823F005
:10260C0080023B685B691343FB607B68FA681A6065
:10261C003B689A687B68DA623B681A687B689A62E6
:10262C007B680D4A934203D13B681A697B681A6335
:10263C007B6801225A617B681B6903F00103002B44
:10264C0005D07B681B6923F001027B681A6100BF0F
:10265C001437BD4680BC7047002C0140000400407C
:10266C0080B487B000AFF860B9607A60FB681B6A11
:10267C007B61FB681B6A23F00102FB681A62FB6832
:10268C009B693B613B6923F0F0033B617B681B0159
:10269C003A6913433B617B6923F00A037B617A69D6
:1026AC00BB6813437B61FB683A699A61FB687A6982
:1026BC001A6200BF1C37BD4680BC704780B487B01F
:1026CC0000AFF860B9607A60FB681B6A7B61FB68DD
:1026DC001B6A23F01002FB681A62FB689B693B6162
:1026EC003B6923F470433B617B681B033A691343DA
:1026FC003B617B6923F0A0037B61BB681B017A699A
:10270C0013437B61FB683A699A61FB687A691A62C8
:10271C0000BF1C37BD4680BC704780B485B000AF8D
:10272C00786039607B689B68FB60FB6823F0700302
:10273C00FB603A68FB68134343F00703FB607B685C
:10274C00FA689A6000BF1437BD4680BC704780B4ED
:10275C0087B000AFF860B9607A603B60FB689B683B
:10276C007B617B6923F47F437B613B681A027B6846
:10277C001A43BB6813437A6913437B61FB687A691C
:10278C009A6000BF1C37BD4680BC704780B485B0D2
:10279C0000AF786039607B6893F83C30012B01D135
:1027AC00022341E07B68012283F83C207B680222F3
:1027BC0083F83D207B681B685B68FB607B681B684B
:1027CC009B68BB60FB6823F07003FB603B681B6875
:1027DC00FA681343FB607B681B68FA685A607B6875
:1027EC001B68144A934209D07B681B68B3F1804F75
:1027FC0004D07B681B68104A93420CD1BB6823F051
:10280C008003BB603B685B68BA681343BB607B6842
:10281C001B68BA689A607B68012283F83D207B684C
:10282C00002283F83C20002318461437BD4680BC98
:10283C00704700BF002C01400004004080B483B0FE
:10284C0000AF786000BF0C37BD4680BC704780B4C9
:10285C0083B000AF786000BF0C37BD4680BC7047BA
:10286C0070B500260C4D0D4C641BA410A64209D16A
:10287C0000F022F800260A4D0A4C641BA410A64254
:10288C0005D170BD55F8043B98470136EEE755F875
:10289C00043B98470136F2E700290008002900089C
:1028AC00002900080429000803460244934200D181
:1028BC00704703F8011BF9E7F8B500BFF8BC08BC7A
:1028CC009E467047F8B500BFF8BC08BC9E467047E2
:1028DC0000000000000000000102030406070809C4
:1028EC0002030405060708090A0B0C0D0E0F101045
:0428FC0001020000D5
:042900003101000899
:042904000D010008B9
:1029080001000000010000000100000001000000BB
:1029180001000000010000000100000001000000AB
:10292800983A00008813000010270000FFFFFFFFFF
:0C29380000127A001000000001000000F6
:040000050800124D90
:00000001FF
