:020000040800F2
:1000000000280020B11400086D13000873130008C5
:10001000791300087F130008851300080000000012
:100020000000000000000000000000008B1300082A
:100030009713000800000000A3130008AF13000886
:10004000F9140008F9140008F9140008F91400085C
:10005000F9140008F9140008F9140008F91400084C
:10006000F9140008F9140008F9140008F91400083C
:10007000F9140008F9140008F9140008F91400082C
:10008000F9140008F9140008F9140008F91400081C
:10009000F9140008F9140008F9140008F91400080C
:1000A000F9140008F9140008F9140008F9140008FC
:1000B000BD130008F914000800000000F91400083E
:1000C000F91400080000000000000000F914000806
:1000D00000000000F9140008F914000800000000F6
:1000E000F9140008F9140008F914000800000000D1
:1000F0000000000000000000000000000000000000
:0C01000000000000000000005FF808F1A3
:10010C0010B5054C237833B9044B13B10448AFF345
:10011C0000800123237010BD50000020000000005F
:10012C00282B000808B5034B1BB103490348AFF358
:10013C00008008BD0000000054000020282B00089F
:10014C0080B500AF654B1B68654A1360654B1B6837
:10015C00624A13600121644801F0B4FC03461A465C
:10016C00604B1A60614B1B68614A1360614B1B68E2
:10017C005E4A136002215C4801F0A4FC03461A4657
:10018C005C4B1A60564B1A68544B1B689A422DD123
:10019C00524B1A68534B1B689A4227D1564B1A681C
:1001AC00504B1B689A4212D04E4B1B68524A13603C
:1001BC004C4B1B68002B19D1504B01221A600421A7
:1001CC004F4801F0AEFC4F4BC8221A600EE04D4B6D
:1001DC001B68013B4B4A13604A4B1B68002B05DC28
:1001EC00454B01221A60474BC8221A60404B1A68D3
:1001FC003E4B1B689A422DD13C4B1A683D4B1B68F9
:10020C009A4227D1404B1A683A4B1B689A4212D03B
:10021C00384B1B683C4A1360364B1B68002B19D1BA
:10022C003A4B01221A600421354801F07AFC354B17
:10023C00C8221A600EE0334B1B68013B314A136035
:10024C00304B1B68002B05DC2F4B01221A602D4B09
:10025C00C8221A602E4B1B682E4A13602E4B1B684B
:10026C002B4A13600421204801F02CFC03461A464B
:10027C00294B1A60274B1A68254B1B689A422AD1C6
:10028C00234B1A68244B1B689A4224D1234B1A68BF
:10029C00214B1B689A420FD01F4B1B681F4A1360DF
:1002AC001D4B1B68002B16D11D4B01221A6004211B
:1002BC00134801F036FC0EE0124B1B68013B114A4F
:1002CC001360104B1B68002B05DC144B01221A60C9
:1002DC000C4BC8221A6000BF80BD00BF0400002078
:1002EC000000002008000020000C01401400002039
:1002FC0010000020180000200C00002070000020CE
:10030C00000801406C0000201C000020740000203C
:10031C002400002020000020280000202C000020B9
:10032C007800002080B400AF064B1B68012B04D171
:10033C00044B00221A60012300E000231846BD463E
:10034C0080BC70477000002080B400AF064B1B6867
:10035C00012B04D1044B00221A60012300E000237E
:10036C001846BD4680BC70477400002080B400AFB6
:10037C00064B1B68012B04D1044B00221A6001238D
:10038C0000E000231846BD4680BC70477800002072
:10039C0080B500AFA04B1B68012B00F0E2819F4B96
:1003AC001B68012B00F0DF819D4B1B68032B00F2B7
:1003BC00EF8001A252F823F0D50300088304000853
:1003CC003F050008E104000800220821954801F0CF
:1003DC0090FB00221021934801F08BFB002220217E
:1003EC00904801F086FB002240218E4801F081FBF1
:1003FC00002280218B4801F07CFB00224FF480719D
:10040C00884801F076FB864B01221A60864B1B68EC
:10041C00864A82FB03129211DB17D31A844A1360AB
:10042C00844B03221A60844B1B68804A82FB0312A4
:10043C009211DB17D31A814A13607D4B1B687F4ADC
:10044C0012681146184600F0E9FD774B1B681946F7
:10045C00002000F0BDFF784B1B681946012000F00E
:10046C00B7FF4FF47A71022000F0B2FFFA2103209B
:10047C0000F0AEFF78E1012208216A4801F039FB57
:10048C0000221021674801F034FB0022202165482E
:10049C0001F02FFB6A4B1B68012B7BD1604B0322B5
:1004AC001A60654B1B68614A82FB03129211DB17C1
:1004BC00D31A5F4A13605E4B1B68604A1268114680
:1004CC00184600F0ABFD5C4B1B681946002000F091
:1004DC007FFF5FE000220821524801F00AFB002256
:1004EC001021504801F005FB012220214D4801F05C
:1004FC0000FB534B1B68012B4ED1494B02221A6057
:10050C00504B1B68494A82FB03129211DB17D31A1A
:10051C00474A1360464B1B68484A126811461846F6
:10052C0000F07CFD474B1B681946002000F050FF83
:10053C0032E0002208213B4801F0DBFA01221021B5
:10054C00384801F0D6FA00222021364801F0D1FAC1
:10055C003B4B1B68012B21D1314B01221A60324BD2
:10056C001B68324A82FB03129211DB17D31A304AF2
:10057C0013602F4B1B68314A12681146184600F065
:10058C004DFD294B1B681946002000F021FF05E0AA
:10059C0000BF04E000BF02E000BF00E000BF254B3D
:1005AC001B68032B50D0032B00F3AE80012B02D021
:1005BC00022B79D0A8E0012240211A4801F099FAC7
:1005CC0000228021174801F094FA00224FF4807128
:1005DC00144801F08EFA1A4B5B68012B40F09680A0
:1005EC00144B03221A60144B1B68104A82FB031233
:1005FC009211DB17D31A114A13600D4B1B680F4A6B
:10060C0012681146184600F009FD0B4B1B68194681
:10061C00012000F0DDFE79E0900000208C0000202D
:10062C00840000200008014038000020D34D6210E7
:10063C007C0000208800002040000020800000206A
:10064C00B80000203C00002000224021474801F067
:10065C0050FA00228021454801F04BFA01224FF458
:10066C008071424801F045FA414B5B68012B4FD138
:10067C00404B02221A60404B1B68404A82FB03121B
:10068C009211DB17D31A3E4A13603E4B1B683C4A4F
:10069C0012681146184600F0C1FC374B1B6819460E
:1006AC00012000F095FE33E0002240212F4801F09C
:1006BC0020FA012280212D4801F01BFA00224FF470
:1006CC0080712A4801F015FA294B5B68012B21D166
:1006DC00284B01221A602C4B1B68284A82FB031200
:1006EC009211DB17D31A264A1360264B1B68244A37
:1006FC0012681146184600F091FC234B1B681946F2
:10070C00012000F065FE05E000BF04E000BF02E040
:10071C0000BF00E000BF164B9B68012B16D14FF4B5
:10072C007A71022000F054FE164B1B68013B154AEF
:10073C001360134B1B68013B114A1360114B1B6870
:10074C000F4A12681146184600F068FC084BDB682B
:10075C00012B09D1FA21032000F03AFE00F020FA17
:10076C0002E000BF00E000BF80BD00BF00080140F8
:10077C00B8000020880000203C000020D34D6210FF
:10078C00800000207C0000203800002080B500AFE5
:10079C00564B1B68012B00F0A780554B1B68012B97
:1007AC0045D0FFF7E3FD0346012B40D1504B01220E
:1007BC001A60504B4FF0FF321A604F4B4FF0FF3224
:1007CC001A604E4B01221A60002208214C4801F09D
:1007DC0090F9002240214A4801F08BF900221021A7
:1007EC00474801F086F900228021454801F081F943
:1007FC0000222021424801F07CF900224FF4807144
:10080C003F4801F076F9012208213E4801F071F9C8
:10081C00012210213B4801F06CF9012220213948BA
:10082C0001F067F901224021364801F062F9334B9F
:10083C001B68012B02D0022B1ED03EE0012220218E
:10084C002F4801F056F9012240212D4801F051F9B1
:10085C0000224FF480712A4801F04BF90022082144
:10086C00274801F046F9FFF781FD0346012B21D102
:10087C00224B02221A601DE001220821204801F0BF
:10088C0038F901224FF480711D4801F032F9002231
:10089C0020211B4801F02DF900224021184801F0BD
:1008AC0028F9FFF763FD0346012B05D1134B0122F9
:1008BC001A6001E000BF00E000BF0D4B1B68012B6C
:1008CC0013D1FFF72FFD0346012B0ED1084B00224D
:1008DC001A60084B00221A60074B00221A60074B63
:1008EC004FF0FF321A6000E000BF80BD8C0000208A
:1008FC00900000208400002088000020340000209C
:10090C0000080140000C014080B500AF9A4B1B68F9
:10091C00012B00F02781FFF705FD0346012B2AD19F
:10092C0000220821954801F0E4F800221021934898
:10093C0001F0DFF800222021904801F0DAF80022C3
:10094C0040218E4801F0D5F8002280218B4801F01F
:10095C00D0F800224FF48071884801F0CAF8884B17
:10096C0001221A600021002000F058FB854B1B6807
:10097C000133844A1360834B1B68042B00F2F48010
:10098C0001A252F823F000BFA90900080F0A0008C1
:10099C00730A0008D50A0008390B00080022082148
:1009AC00764801F0A6F800221021744801F0A1F855
:1009BC0000222021714801F09CF8002240216F4850
:1009CC0001F097F8002280216C4801F092F8002287
:1009DC004FF48071694801F08CF8FA21032000F083
:1009EC00F7FC694B00221A60684B00221A60684BB6
:1009FC0000221A600021002000F010FB614B012244
:100A0C001A60FFF7A1FC0346012B18D15E4B1B6843
:100A1C0003F57A735C4A13605B4B1B685D4A82FB7F
:100A2C0003129211DB17D01A574B1B68594A82FBE1
:100A3C0003129211DB17D31A194600F0EFFA564B3A
:100A4C00DB68012B40F0928000F0AAF808214B489B
:100A5C0001F067F84021494801F063F8FA210320BE
:100A6C0000F0B6FC82E0FFF76FFC0346012B18D1B7
:100A7C00464B1B6803F57A73444A1360434B1B685F
:100A8C00444A82FB03129211DB17D01A3F4B1B68AE
:100A9C00404A82FB03129211DB17D31A194600F05D
:100AAC00BDFA3D4BDB68012B62D100F079F81021C7
:100ABC00324801F036F88021304801F032F8FA2142
:100ACC00032000F085FC53E0FFF73EFC0346012BAE
:100ADC0018D12F4B1B6803F57A732D4A13602C4BDE
:100AEC001B682C4A82FB03129211DB17D01A284B7D
:100AFC001B68284A82FB03129211DB17D31A194682
:100B0C0000F08CFA244BDB68012B33D100F048F851
:100B1C0020211A4801F005F84FF48071174801F0B4
:100B2C0000F8FA21032000F053FC23E0164B1B685D
:100B3C00002B13D0154B1A68154B1B681A44124B1B
:100B4C001B689A420AD10F4B4FF0FF321A60134BBD
:100B5C0000221A600A4B00221A600CE0094B00229A
:100B6C001A6008E000BF06E000BF04E000BF02E02E
:100B7C0000BF00E000BF80BD9000002000080140D5
:100B8C008C00002030000020380000203C000020A9
:100B9C0040000020D34D6210B800002084000020DB
:100BAC0080B500AF012208212E4800F0A2FF0122DF
:100BBC0010212C4800F09DFF01222021294800F033
:100BCC0098FF01224021274800F093FF264B1B6819
:100BDC00032B37D801A252F823F000BFF90B000801
:100BEC000F0C0008250C00083B0C00080022082103
:100BFC001C4800F07EFF1D4B1B68184600F038F8AF
:100C0C0021E000221021174800F073FF174B5B689E
:100C1C00184600F02DF816E000222021114800F0B3
:100C2C0068FF124B9B68184600F022F80BE000227C
:100C3C0040210C4800F05DFF0C4BDB68184600F0BF
:100C4C0017F800E000BF084B1B680133064A13601D
:100C5C00054B1B68032B02DD034B00221A6000BFFF
:100C6C0080BD00BF000C0140A400002094000020B7
:100C7C0080B582B000AF78607B68092B00F2C88128
:100C8C0001A252F823F000BFBD0C0008130D0008A0
:100C9C00690D0008BF0D0008150E00086B0E00084A
:100CAC00C10E0008170F00086D0F0008C30F0008D5
:100CBC0000224FF40071D54800F01BFF00224FF4C6
:100CCC008061D24800F015FF00224FF40061CF483C
:100CDC0000F00FFF00224FF48051CC4800F009FFC8
:100CEC0000224FF40051C94800F003FF00224FF4DA
:100CFC008041C64800F0FDFE01224FF40041C3487C
:100D0C0000F0F7FE85E101224FF40071BF4800F0BE
:100D1C00F0FE00224FF48061BC4800F0EAFE002295
:100D2C004FF40061B94800F0E4FE01224FF4805109
:100D3C00B64800F0DEFE01224FF40051B34800F03B
:100D4C00D8FE01224FF48041B04800F0D2FE0122BF
:100D5C004FF40041AD4800F0CCFE5AE100224FF4B4
:100D6C000071AA4800F0C5FE00224FF48061A7482C
:100D7C0000F0BFFE01224FF40061A44800F0B9FE60
:100D8C0000224FF48051A14800F0B3FE00224FF432
:100D9C0000519E4800F0ADFE01224FF480419B486B
:100DAC0000F0A7FE00224FF40041984800F0A1FE8D
:100DBC002FE100224FF40071944800F09AFE0022BB
:100DCC004FF48061914800F094FE00224FF40061D2
:100DDC008E4800F08EFE00224FF480518B4800F0BC
:100DEC0088FE01224FF40051884800F082FE012257
:100DFC004FF48041854800F07CFE00224FF4004106
:100E0C00824800F076FE04E101224FF400717F4825
:100E1C0000F06FFE00224FF480617C4800F069FE08
:100E2C0000224FF40061794800F063FE01224FF478
:100E3C008051764800F05DFE01224FF4005173485A
:100E4C0000F057FE00224FF48041704800F051FE34
:100E5C0000224FF400416D4800F04BFED9E0002217
:100E6C004FF40071694800F044FE01224FF4806198
:100E7C00664800F03EFE00224FF40061634800F02B
:100E8C0038FE00224FF48051604800F032FE0122FF
:100E9C004FF400515D4800F02CFE00224FF48041CD
:100EAC005A4800F026FE00224FF40041574800F04B
:100EBC0020FEAEE000224FF40071544800F019FE01
:100ECC0001224FF48061514800F013FE00224FF4D0
:100EDC0000614E4800F00DFE00224FF480514B484B
:100EEC0000F007FE00224FF40051484800F001FECC
:100EFC0000224FF48041454800F0FBFD00224FF4E6
:100F0C000041424800F0F5FD83E000224FF40071EF
:100F1C003E4800F0EEFD00224FF480613B4800F0AB
:100F2C00E8FD00224FF40061384800F0E2FD012298
:100F3C004FF48051354800F0DCFD01224FF4005194
:100F4C00324800F0D6FD01224FF480412F4800F0CA
:100F5C00D0FD01224FF400412C4800F0CAFD58E0AE
:100F6C0000224FF40071294800F0C3FD00224FF419
:100F7C008061264800F0BDFD00224FF4006123483B
:100F8C0000F0B7FD00224FF48051204800F0B1FD75
:100F9C0000224FF400511D4800F0ABFD00224FF42D
:100FAC0080411A4800F0A5FD00224FF4004117487B
:100FBC0000F09FFD2DE000224FF40071134800F06B
:100FCC0098FD00224FF48061104800F092FD002241
:100FDC004FF400610D4800F08CFD00224FF480515D
:100FEC000A4800F086FD01224FF40051074800F03A
:100FFC0080FD00224FF48041044800F07AFD00226D
:10100C004FF40041014800F074FD02E0000801407B
:10101C0000BF00BF0837BD4680BD00BF80B483B0A1
:10102C0000AF786039607B68184A82FB031292101B
:10103C00DB17D31A164A13607968144B83FB012310
:10104C009A10CB17D21A13469B0013445B00CA1A92
:10105C000F4B5A603B680D4A82FB03129210DB1750
:10106C00D31A0B4A93603968084B83FB01239A10FF
:10107C00CB17D21A13469B0013445B00CA1A044BBD
:10108C00DA6000BF0C37BD4680BC70476766666689
:10109C009400002080B500AF00F02AFA00F010F8A0
:1010AC0000F096F800F048F8044801F07FF9FFF7DB
:1010BC006FF9FFF76BFBFFF727FCF8E7C800002080
:1010CC0080B590B000AF07F1180328220021184614
:1010DC0001F01CFD3B1D00221A605A609A60DA6018
:1010EC001A610223BB610123BB621023FB62002344
:1010FC007B6307F11803184600F02CFD0346002B08
:10110C0001D000F0D1F80F237B600023BB600023DB
:10111C00FB6000233B6100237B613B1D00211846D3
:10112C0000F098FF0346002B01D000F0BDF800BF83
:10113C004037BD4680BD000080B586B000AF07F1DA
:10114C00080300221A605A609A60DA603B4600225B
:10115C001A605A601D4B4FF080421A601B4B41F6CF
:10116C003F725A60194B00229A60184B0922DA60C0
:10117C00164B00221A61154B00229A61134801F09C
:10118C00C5F80346002B01D000F08EF84FF48053C5
:10119C00BB6007F1080319460C4801F043FA0346FB
:1011AC00002B01D000F080F800233B6000237B6013
:1011BC003B461946054801F01BFC0346002B01D0A9
:1011CC0000F072F800BF1837BD4680BDC800002083
:1011DC0080B586B000AF07F1080300221A605A6090
:1011EC009A60DA60274B9B69264A43F004039361AB
:1011FC00244B9B6903F004037B607B68214B9B6948
:10120C00204A43F0080393611E4B9B6903F00803CB
:10121C003B603B6800224FF6FC711B4800F069FCF8
:10122C0000227821194800F064FC4FF6FC73BB6077
:10123C000123FB6000233B6102237B6107F1080360
:10124C001946114800F0C4FA0723BB600023FB6069
:10125C0001233B6107F1080319460C4800F0B8FA6A
:10126C007823BB600123FB6000233B6102237B617D
:10127C0007F108031946054800F0AAFA00BF183711
:10128C00BD4680BD0010024000080140000C01402A
:10129C0080B582B000AF7860FEF752FF00F0B8F86E
:1012AC0000BF0837BD4680BD80B400AF72B600BF2A
:1012BC00FEE7000080B485B000AF154B9B69144A63
:1012CC0043F001039361124B9B6903F00103BB6074
:1012DC00BB680F4BDB690E4A43F08053D3610C4B58
:1012EC00DB6903F080537B607B680A4B5B68FB60B7
:1012FC00FB6823F0E063FB60FB6843F08063FB60FA
:10130C00044AFB68536000BF1437BD4680BC70476D
:10131C00001002400000014080B584B000AF78603E
:10132C007B681B68B3F1804F13D10C4BDB690B4A04
:10133C0043F00103D361094BDB6903F00103FB604C
:10134C00FB68002200211C2000F00BFA1C2000F08E
:10135C0024FA00BF1037BD4680BD00BF001002400C
:10136C0080B400AFFEE780B400AFFEE780B400AFFE
:10137C00FEE780B400AFFEE780B400AFFEE780B4B8
:10138C0000AF00BFBD4680BC704780B400AF00BF4B
:10139C00BD4680BC704780B400AF00BFBD4680BC6A
:1013AC00704780B500AF00F0E9F800BF80BD0000C9
:1013BC0080B500AF024801F045F800BF80BD00BF0A
:1013CC00C800002080B400AF00BFBD4680BC704791
:1013DC0080B483B000AF786039603B68094A82FB07
:1013EC0003129210DB17D21A07497B6841F82320AD
:1013FC00064A7B68002142F8231000BF0C37BD461B
:10140C0080BC704767666666A8000020B8000020A4
:10141C0080B400AF214B1B68002B0BDD1F4B1B68EE
:10142C00013B1E4A13601D4B1B68002B02D11C4B49
:10143C0001221A60194B5B68002B0BDD174B5B68A4
:10144C00013B164A5360154B5B68002B02D1144BC1
:10145C0001225A60114B9B68002B0BDD0F4B9B68D4
:10146C00013B0E4A93600D4B9B68002B02D10C4B39
:10147C0001229A60094BDB68002B0BDD074BDB6804
:10148C00013B064AD360054BDB68002B02D1044BB1
:10149C000122DA6000BFBD4680BC7047A800002066
:1014AC00B8000020FFF78EFF0B480C490C4A0023B4
:1014BC0002E0D458C4500433C4188C42F9D3094AFE
:1014CC00094C002301E013600432A242FBD301F06B
:1014DC00F9FAFFF7DFFD70470000002050000020F4
:1014EC006C2B00085000002014010020FEE70000C7
:1014FC0080B500AF084B1B68074A43F0100313601C
:10150C00032000F023F90F2000F008F8FFF7D2FEBB
:10151C000023184680BD00BF0020024080B582B079
:10152C0000AF7860124B1A68124B1B7819464FF4B7
:10153C007A73B3FBF1F3B2FBF3F3184600F03BF90B
:10154C000346002B01D001230EE07B680F2B0AD839
:10155C00002279684FF0FF3000F003F9064A7B68EF
:10156C001360002300E0012318460837BD4680BDF8
:10157C00440000204C0000204800002080B400AF44
:10158C00054B1B781A46054B1B681344034A136022
:10159C0000BFBD4680BC70474C00002010010020ED
:1015AC0080B400AF024B1B681846BD4680BC704728
:1015BC001001002080B485B000AF78607B6803F028
:1015CC000703FB600C4BDB68BB60BA684FF6FF038C
:1015DC001340BB60FB681A02BB68134343F0BF6344
:1015EC0043F40033BB60044ABB68D36000BF1437BC
:1015FC00BD4680BC704700BF00ED00E080B400AF7A
:10160C00044BDB681B0A03F007031846BD4680BC7D
:10161C00704700BF00ED00E080B483B000AF03461C
:10162C00FB7197F90730002B0BDBFB7903F01F02E2
:10163C00064997F907305B09012000FA02F241F8DC
:10164C00232000BF0C37BD4680BC704700E100E092
:10165C0080B483B000AF03463960FB7197F9073053
:10166C00002B0ADB3B68DAB20C4997F90730120100
:10167C00D2B20B4483F800230AE03B68DAB2084983
:10168C00FB7903F00F03043B1201D2B20B441A7620
:10169C0000BF0C37BD4680BC704700BF00E100E0C6
:1016AC0000ED00E080B489B000AFF860B9607A60FA
:1016BC00FB6803F00703FB61FB69C3F10703042B11
:1016CC0028BF0423BB61FB690433062B02D9FB69D9
:1016DC00033B00E000237B614FF0FF32BB6902FA51
:1016EC0003F3DA43BB681A407B699A404FF0FF3131
:1016FC007B6901FA03F3D9437B680B40134318460B
:10170C002437BD4680BC704780B582B000AF78608E
:10171C007B68013BB3F1807F01D301230FE00A4AC0
:10172C007B68013B53600F214FF0FF30FFF790FFB8
:10173C00054B00229A60044B07221A6000231846BE
:10174C000837BD4680BD00BF10E000E080B582B018
:10175C0000AF78607868FFF72DFF00BF0837BD46F3
:10176C0080BD80B586B000AF0346B9607A60FB736C
:10177C0000237B61FFF742FF78617A68B96878696A
:10178C00FFF790FF024697F90F3011461846FFF706
:10179C005FFF00BF1837BD4680BD80B582B000AF7B
:1017AC000346FB7197F907301846FFF735FF00BF6A
:1017BC000837BD4680BD80B582B000AF78607868D0
:1017CC00FFF7A2FF034618460837BD4680BD000050
:1017DC0080B48BB000AF7860396000237B6200234B
:1017EC003B6248E101227B6A02FA03F3FB613B682E
:1017FC001B68FA691340BB61BA69FB699A4240F0F5
:10180C0037813B685B68A34A93425ED0A14A9342FE
:10181C0075D8A14A934258D09F4A93426FD89F4A99
:10182C00934252D09D4A934269D89D4A93424CD0E0
:10183C009B4A934263D89B4A934246D0994A93421F
:10184C005DD8122B2AD8122B59D801A252F823F0AA
:10185C00D7180008B1180008C318000805190008AB
:10186C000B1900080B1900080B1900080B190008BC
:10187C000B1900080B1900080B1900080B190008AC
:10188C000B1900080B1900080B1900080B1900089C
:10189C000B190008B9180008CD180008824A9342A9
:1018AC0013D02CE03B68DB683B6229E03B68DB68CB
:1018BC0004333B6224E03B68DB6808333B621FE087
:1018CC003B68DB680C333B621AE03B689B68002B7F
:1018DC0002D104233B6213E03B689B68012B05D1CA
:1018EC0008233B627B68FA691A6109E008233B62B2
:1018FC007B68FA695A6103E000233B6200E000BF99
:10190C00BB69FF2B01D87B6801E07B6804337B61EA
:10191C00BB69FF2B02D87B6A9B0002E07B6A083B09
:10192C009B003B617B691A680F213B6901FA03F349
:10193C00DB431A40396A3B6901FA03F31A437B69AA
:10194C001A603B685B6803F08053002B00F09080BA
:10195C00564B9B69554A43F001039361534B9B696A
:10196C0003F00103BB60BB68514A7B6A9B080233DE
:10197C0052F82330FB607B6A03F003039B000F22B9
:10198C0002FA03F3DB43FA681340FB607B68494AB5
:10199C0093420DD07B68484A934207D07B68474AF4
:1019AC00934201D1022304E0032302E0012300E06F
:1019BC0000237A6A02F0030292009340FA68134300
:1019CC00FB603B497B6A9B080233FA6841F8232091
:1019DC003B685B6803F48013002B06D0384B9A6885
:1019EC003749BB6913438B6006E0354B9A68BB697A
:1019FC00DB43334913408B603B685B6803F4001393
:101A0C00002B06D02E4BDA682D49BB691343CB60F3
:101A1C0006E02B4BDA68BB69DB4329491340CB60EA
:101A2C003B685B6803F40033002B06D0244B5A68E8
:101A3C002349BB6913434B6006E0214B5A68BB69D1
:101A4C00DB431F4913404B603B685B6803F48033F6
:101A5C00002B06D01A4B1A681949BB6913430B604B
:101A6C0006E0174B1A68BB69DB43154913400B6042
:101A7C007B6A01337B623B681A687B6A22FA03F348
:101A8C00002B7FF4AFAE00BF00BF2C37BD4680BC2F
:101A9C00704700BF0000321000003110000022100F
:101AAC000000211000001210000011100010024064
:101ABC000000014000080140000C014000100140F2
:101ACC000004014080B485B000AF78600B467B8089
:101ADC007B689A687B881340002B02D00123FB7330
:101AEC0001E00023FB73FB7B18461437BD4680BC1A
:101AFC00704780B483B000AF78600B467B80134690
:101B0C007B707B78002B03D07A887B681A6103E0AA
:101B1C007B881A047B681A6100BF0C37BD4680BCF9
:101B2C00704780B485B000AF78600B467B807B68D3
:101B3C00DB68FB607A88FB6813401A04FB68D943A6
:101B4C007B880B401A437B681A6100BF1437BD4673
:101B5C0080BC704780B586B000AF78607B68002B86
:101B6C0001D101236CE27B681B6803F00103002B9D
:101B7C0000F08780924B5B6803F00C03042B0CD0B5
:101B8C008F4B5B6803F00C03082B12D18C4B5B68FA
:101B9C0003F48033B3F5803F0BD1894B1B6803F4FE
:101BAC000033002B6CD07B685B68002B68D1012361
:101BBC0046E27B685B68B3F5803F06D1804B1B68BF
:101BCC007F4A43F4803313602EE07B685B68002B04
:101BDC000CD17B4B1B687A4A23F480331360784B0F
:101BEC001B68774A23F4802313601DE07B685B68D5
:101BFC00B3F5A02F0CD1724B1B68714A43F48023B0
:101C0C0013606F4B1B686E4A43F4803313600BE018
:101C1C006B4B1B686A4A23F480331360684B1B6858
:101C2C00674A23F4802313607B685B68002B13D016
:101C3C00FFF7B6FC386108E0FFF7B2FC02463B69DF
:101C4C00D31A642B01D90323FAE15D4B1B6803F40F
:101C5C000033002BF0D014E0FFF7A2FC386108E051
:101C6C00FFF79EFC02463B69D31A642B01D9032370
:101C7C00E6E1534B1B6803F40033002BF0D100E07A
:101C8C0000BF7B681B6803F00203002B63D04C4B36
:101C9C005B6803F00C03002B0BD0494B5B6803F023
:101CAC000C03082B1CD1464B5B6803F48033002BD0
:101CBC0016D1434B1B6803F00203002B05D07B6845
:101CCC001B69012B01D00123BAE13D4B1B6823F0AA
:101CDC00F8027B685B69DB00394913430B603AE01F
:101CEC007B681B69002B20D0364B01221A60FFF752
:101CFC0057FC386108E0FFF753FC02463B69D31AE6
:101D0C00022B01D903239BE12D4B1B6803F002032B
:101D1C00002BF0D02A4B1B6823F0F8027B685B6920
:101D2C00DB00274913430B6015E0264B00221A6099
:101D3C00FFF736FC386108E0FFF732FC02463B69DE
:101D4C00D31A022B01D903237AE11D4B1B6803F034
:101D5C000203002BF0D17B681B6803F00803002BF7
:101D6C003AD07B689B69002B19D0174B01221A6063
:101D7C00FFF716FC386108E0FFF712FC02463B69DE
:101D8C00D31A022B01D903235AE10D4B5B6A03F0E2
:101D9C000203002BF0D0012000F09AFA1CE00A4B51
:101DAC0000221A60FFF7FCFB38610FE0FFF7F8FB2D
:101DBC0002463B69D31A022B08D9032340E100BF2A
:101DCC000010024000004242800442429E4B5B6A7B
:101DDC0003F00203002BE9D17B681B6803F00403BA
:101DEC00002B00F0A6800023FB75974BDB6903F0FA
:101DFC008053002B0DD1944BDB69934A43F08053F5
:101E0C00D361914BDB6903F08053BB60BB6801234A
:101E1C00FB758E4B1B6803F48073002B18D18B4B16
:101E2C001B688A4A43F480731360FFF7B9FB38616F
:101E3C0008E0FFF7B5FB02463B69D31A642B01D9C6
:101E4C000323FDE0814B1B6803F48073002BF0D05F
:101E5C007B68DB68012B06D17B4B1B6A7A4A43F00B
:101E6C00010313622DE07B68DB68002B0CD1764BF1
:101E7C001B6A754A23F001031362734B1B6A724A87
:101E8C0023F0040313621CE07B68DB68052B0CD188
:101E9C006D4B1B6A6C4A43F0040313626A4B1B6A5A
:101EAC00694A43F0010313620BE0674B1B6A664AF5
:101EBC0023F001031362644B1B6A634A23F004038F
:101ECC0013627B68DB68002B15D0FFF769FB386168
:101EDC000AE0FFF765FB02463B69D31A41F28832F0
:101EEC00934201D90323ABE0574B1B6A03F0020367
:101EFC00002BEED014E0FFF753FB38610AE0FFF73C
:101F0C004FFB02463B69D31A41F28832934201D906
:101F1C00032395E04C4B1B6A03F00203002BEED11C
:101F2C00FB7D012B05D1484BDB69474A23F08053DD
:101F3C00D3617B68DB69002B00F08180424B5B68CE
:101F4C0003F00C03082B61D07B68DB69022B46D1B4
:101F5C003F4B00221A60FFF723FB386108E0FFF7C4
:101F6C001FFB02463B69D31A022B01D9032367E0FE
:101F7C00354B1B6803F00073002BF0D17B681B6A98
:101F8C00B3F5803F08D1304B5B6823F400327B689B
:101F9C009B682D4913434B602B4B5B6823F47412E5
:101FAC007B68196A7B685B6A0B43274913434B6058
:101FBC00274B01221A60FFF7F3FA386108E0FFF7AC
:101FCC00EFFA02463B69D31A022B01D9032337E0FF
:101FDC001D4B1B6803F00073002BF0D02FE01C4B43
:101FEC0000221A60FFF7DCFA386108E0FFF7D8FA34
:101FFC0002463B69D31A022B01D9032320E0124B72
:10200C001B6803F00073002BF0D118E07B68DB69D0
:10201C00012B01D1012313E00B4B5B68FB60FB68C8
:10202C0003F480327B681B6A9A4206D1FB6803F486
:10203C0070127B685B6A9A4201D0012300E0002396
:10204C0018461837BD4680BD001002400070004095
:10205C006000424280B584B000AF786039607B6824
:10206C00002B01D10123D0E06A4B1B6803F007035E
:10207C003A689A4210D9674B1B6823F007026549EE
:10208C003B6813430B60634B1B6803F007033A6810
:10209C009A4201D00123B8E07B681B6803F002036D
:1020AC00002B20D07B681B6803F00403002B05D0A9
:1020BC00594B5B68584A43F4E06353607B681B6878
:1020CC0003F00803002B05D0534B5B68524A43F4D2
:1020DC0060535360504B5B6823F0F0027B689B6845
:1020EC004D4913434B607B681B6803F00103002BC5
:1020FC0040D07B685B68012B07D1474B1B6803F40E
:10210C000033002B15D101237FE07B685B68022B29
:10211C0007D1414B1B6803F00073002B09D101233D
:10212C0073E03D4B1B6803F00203002B01D101232C
:10213C006BE0394B5B6823F003027B685B683649C4
:10214C0013434B60FFF72CFAF8600AE0FFF728FA0C
:10215C000246FB68D31A41F28832934201D9032319
:10216C0053E02D4B5B6803F00C027B685B689B00B3
:10217C009A42EBD1274B1B6803F007033A689A424B
:10218C0010D2244B1B6823F0070222493B681343EF
:10219C000B60204B1B6803F007033A689A4201D08E
:1021AC00012332E07B681B6803F00403002B08D08A
:1021BC00194B5B6823F4E0627B68DB6816491343B8
:1021CC004B607B681B6803F00803002B09D0124B93
:1021DC005B6823F460527B681B69DB000E49134378
:1021EC004B6000F021F802460B4B5B681B0903F0B7
:1021FC000F030A49CB5C22FA03F3094A1360094B1B
:10220C001B681846FFF78AF9002318461037BD469D
:10221C0080BD00BF0020024000100240402B00088F
:10222C00440000204800002080B487B000AF002399
:10223C00FB600023BB6000237B6100237B600023D9
:10224C003B611E4B5B68FB60FB6803F00C03042BCB
:10225C0002D0082B03D027E0194B3B6127E0FB6829
:10226C009B0C03F00F03174AD35C7B60FB6803F4F1
:10227C008033002B10D0114B5B685B0C03F0010317
:10228C00114AD35CBB607B680D4A02FB03F2BB684E
:10229C00B2FBF3F37B6104E07B680C4A02FB03F3B3
:1022AC007B617B693B6102E0054B3B6100BF3B6995
:1022BC0018461C37BD4680BC704700BF001002405A
:1022CC0000127A00502B0008602B000800093D001A
:1022DC0080B485B000AF78600A4B1B680A4AA2FB39
:1022EC0003235B0A7A6802FB03F3FB6000BFFB6805
:1022FC005A1EFA60002BF9D100BF00BF1437BD463F
:10230C0080BC704744000020D34D621080B582B071
:10231C0000AF78607B68002B01D1012341E07B6822
:10232C0093F83D30DBB2002B06D17B68002283F89A
:10233C003C207868FEF7F0FF7B68022283F83D2092
:10234C007B681A687B6804331946104600F056FA0D
:10235C007B68012283F846207B68012283F83E20AB
:10236C007B68012283F83F207B68012283F84020A0
:10237C007B68012283F841207B68012283F842208C
:10238C007B68012283F843207B68012283F8442078
:10239C007B68012283F845207B68012283F83D206D
:1023AC00002318460837BD4680BD000080B485B0B8
:1023BC0000AF78607B6893F83D30DBB2012B01D025
:1023CC00012335E07B68022283F83D207B681B6883
:1023DC00DA687B681B6842F00102DA607B681B6874
:1023EC00164A934209D07B681B68B3F1804F04D026
:1023FC007B681B68124A934211D17B681B689B68EF
:10240C0003F00703FB60FB68062B10D07B681B688E
:10241C001A687B681B6842F001021A6007E07B684F
:10242C001B681A687B681B6842F001021A60002363
:10243C0018461437BD4680BC704700BF002C0140C5
:10244C000004004080B584B000AF78607B681B68E6
:10245C00DB68FB607B681B681B69BB60BB6803F0B7
:10246C000203002B20D0FB6803F00203002B1BD0CF
:10247C007B681B686FF002021A617B6801221A7775
:10248C007B681B689B6903F00303002B03D07868FF
:10249C0000F098F905E0786800F08BF9786800F0A6
:1024AC009AF97B6800221A77BB6803F00403002BAF
:1024BC0020D0FB6803F00403002B1BD07B681B6847
:1024CC006FF004021A617B6802221A777B681B6822
:1024DC009B6903F44073002B03D0786800F072F909
:1024EC0005E0786800F065F9786800F074F97B68AD
:1024FC0000221A77BB6803F00803002B20D0FB687E
:10250C0003F00803002B1BD07B681B686FF00802DC
:10251C001A617B6804221A777B681B68DB6903F0FD
:10252C000303002B03D0786800F04CF905E07868C1
:10253C0000F03FF9786800F04EF97B6800221A77BA
:10254C00BB6803F01003002B20D0FB6803F01003D2
:10255C00002B1BD07B681B686FF010021A617B6824
:10256C0008221A777B681B68DB6903F44073002B25
:10257C0003D0786800F026F905E0786800F019F9C6
:10258C00786800F028F97B6800221A77BB6803F0A2
:10259C000103002B0CD0FB6803F00103002B07D0C8
:1025AC007B681B686FF001021A617868FEF770FE99
:1025BC00BB6803F08003002B0CD0FB6803F0800396
:1025CC00002B07D07B681B686FF080021A6178685B
:1025DC0000F06FFABB6803F04003002B0CD0FB68D3
:1025EC0003F04003002B07D07B681B686FF04002A0
:1025FC001A61786800F0F8F8BB6803F02003002B30
:10260C000CD0FB6803F02003002B07D07B681B6801
:10261C006FF020021A61786800F042FA00BF1037A0
:10262C00BD4680BD80B584B000AF786039600023B2
:10263C00FB737B6893F83C30012B01D10223B4E08F
:10264C007B68012283F83C207B68022283F83D20C2
:10265C007B681B689B68BB60BB6823F07703BB601F
:10266C00BB6823F47F43BB607B681B68BA689A60C5
:10267C003B681B68B3F5005F3ED0B3F5005F00F21A
:10268C008780B3F5805F00F08680B3F5805F7FD8DC
:10269C00702B1AD0702B7BD8602B50D0602B77D836
:1026AC00502B3CD0502B73D8402B58D0402B6FD88C
:1026BC00302B64D0302B6BD8202B60D0202B67D8DC
:1026CC00002B5CD0102B5AD062E07B6818683B68FA
:1026DC0099683B685A683B68DB6800F06AF97B686C
:1026EC001B689B68BB60BB6843F07703BB607B686F
:1026FC001B68BA689A604FE07B6818683B689968F9
:10270C003B685A683B68DB6800F053F97B681B68D0
:10271C009A687B681B6842F480429A603CE07B6854
:10272C0018683B6859683B68DB681A4600F0CAF8C1
:10273C007B681B685021184600F021F92CE07B685F
:10274C0018683B6859683B68DB681A4600F0E8F883
:10275C007B681B686021184600F011F91CE07B684F
:10276C0018683B6859683B68DB681A4600F0AAF8A1
:10277C007B681B684021184600F001F90CE07B686F
:10278C001A683B681B681946104600F0F8F803E01D
:10279C000123FB7300E000BF7B68012283F83D201E
:1027AC007B68002283F83C20FB7B18461037BD4623
:1027BC0080BD80B483B000AF786000BF0C37BD46DD
:1027CC0080BC704780B483B000AF786000BF0C371A
:1027DC00BD4680BC704780B483B000AF786000BF4A
:1027EC000C37BD4680BC704780B483B000AF7860B6
:1027FC0000BF0C37BD4680BC7047000080B485B06C
:10280C0000AF786039607B681B68FB607B682B4A83
:10281C00934207D07B68B3F1804F03D07B68284A82
:10282C00934208D1FB6823F07003FB603B685B6844
:10283C00FA681343FB607B68204A934207D07B689D
:10284C00B3F1804F03D07B681D4A934208D1FB68DB
:10285C0023F44073FB603B68DB68FA681343FB604E
:10286C00FB6823F080023B685B691343FB607B6869
:10287C00FA681A603B689A687B68DA623B681A6887
:10288C007B689A627B680D4A934203D13B681A6954
:10289C007B681A637B6801225A617B681B6903F0B1
:1028AC000103002B05D07B681B6923F001027B68B8
:1028BC001A6100BF1437BD4680BC7047002C014024
:1028CC000004004080B487B000AFF860B9607A6053
:1028DC00FB681B6A7B61FB681B6A23F00102FB68C7
:1028EC001A62FB689B693B613B6923F0F0033B6117
:1028FC007B681B013A6913433B617B6923F00A0334
:10290C007B617A69BB6813437B61FB683A699A61A6
:10291C00FB687A691A6200BF1C37BD4680BC7047E1
:10292C0080B487B000AFF860B9607A60FB681B6A4E
:10293C007B61FB681B6A23F01002FB681A62FB6860
:10294C009B693B613B6923F470433B617B681B03D0
:10295C003A6913433B617B6923F0A0037B61BB683D
:10296C001B017A6913437B61FB683A699A61FB68C6
:10297C007A691A6200BF1C37BD4680BC704780B4B0
:10298C0085B000AF786039607B689B68FB60FB6842
:10299C0023F07003FB603A68FB68134343F00703B2
:1029AC00FB607B68FA689A6000BF1437BD4680BC38
:1029BC00704780B487B000AFF860B9607A603B6054
:1029CC00FB689B687B617B6923F47F437B613B687D
:1029DC001A027B681A43BB6813437A6913437B6101
:1029EC00FB687A699A6000BF1C37BD4680BC704793
:1029FC0080B485B000AF786039607B6893F83C3068
:102A0C00012B01D1022341E07B68012283F83C2099
:102A1C007B68022283F83D207B681B685B68FB6047
:102A2C007B681B689B68BB60FB6823F07003FB60D2
:102A3C003B681B68FA681343FB607B681B68FA6889
:102A4C005A607B681B68144A934209D07B681B68E8
:102A5C00B3F1804F04D07B681B68104A93420CD1B1
:102A6C00BB6823F08003BB603B685B68BA681343A8
:102A7C00BB607B681B68BA689A607B68012283F82C
:102A8C003D207B68002283F83C2000231846143735
:102A9C00BD4680BC704700BF002C014000040040C4
:102AAC0080B483B000AF786000BF0C37BD4680BCEB
:102ABC00704780B483B000AF786000BF0C37BD4660
:102ACC0080BC704770B500260C4D0D4C641BA410D7
:102ADC00A64209D100F022F800260A4D0A4C641BCC
:102AEC00A410A64205D170BD55F8043B9847013699
:102AFC00EEE755F8043B98470136F2E7642B0008E3
:102B0C00642B0008642B0008682B00080346024461
:102B1C00934200D1704703F8011BF9E7F8B500BFE9
:102B2C00F8BC08BC9E467047F8B500BFF8BC08BCA2
:042B3C009E467047FA
:102B4000000000000000000001020304060708095D
:102B500002030405060708090A0B0C0D0E0F1010DE
:042B6000010200006E
:042B64003101000833
:042B68000D01000853
:102B6C000100000001000000010000000100000055
:102B7C000100000001000000010000000100000045
:102B8C000100000001000000010000000100000035
:102B9C00FFFFFFFFFFFFFFFF983A000088130000C4
:102BAC001027000000127A00100000000100000045
:04000005080014B12A
:00000001FF
